{
  "contractName": "Election",
  "abi": [
    {
      "inputs": [],
      "stateMutability": "nonpayable",
      "type": "constructor"
    },
    {
      "anonymous": false,
      "inputs": [
        {
          "indexed": true,
          "internalType": "uint256",
          "name": "_id",
          "type": "uint256"
        }
      ],
      "name": "update",
      "type": "event"
    },
    {
      "inputs": [
        {
          "internalType": "uint256",
          "name": "",
          "type": "uint256"
        }
      ],
      "name": "candidate",
      "outputs": [
        {
          "internalType": "uint256",
          "name": "id",
          "type": "uint256"
        },
        {
          "internalType": "string",
          "name": "name",
          "type": "string"
        },
        {
          "internalType": "uint256",
          "name": "voteCount",
          "type": "uint256"
        }
      ],
      "stateMutability": "view",
      "type": "function",
      "constant": true
    },
    {
      "inputs": [],
      "name": "candidateCount",
      "outputs": [
        {
          "internalType": "uint256",
          "name": "",
          "type": "uint256"
        }
      ],
      "stateMutability": "view",
      "type": "function",
      "constant": true
    },
    {
      "inputs": [
        {
          "internalType": "address",
          "name": "",
          "type": "address"
        }
      ],
      "name": "voted",
      "outputs": [
        {
          "internalType": "bool",
          "name": "",
          "type": "bool"
        }
      ],
      "stateMutability": "view",
      "type": "function",
      "constant": true
    },
    {
      "inputs": [
        {
          "internalType": "uint256",
          "name": "_id",
          "type": "uint256"
        }
      ],
      "name": "Vote",
      "outputs": [],
      "stateMutability": "nonpayable",
      "type": "function"
    }
  ],
  "bytecode": "0x608060405234801561001057600080fd5b506100556040518060400160405280600781526020017f4d6f6469206a690000000000000000000000000000000000000000000000000081525061009e60201b60201c565b6100996040518060400160405280600c81526020017f52616a69762047616e646869000000000000000000000000000000000000000081525061009e60201b60201c565b6101b5565b60008081548092919060010191905055506040518060600160405280600054815260200182815260200160008152506001600080548152602001908152602001600020600082015181600001556020820151816001019080519060200190610107929190610118565b506040820151816002015590505050565b828054600181600116156101000203166002900490600052602060002090601f016020900481019282601f1061015957805160ff1916838001178555610187565b82800160010185558215610187579182015b8281111561018657825182559160200191906001019061016b565b5b5090506101949190610198565b5090565b5b808211156101b1576000816000905550600101610199565b5090565b6104ba806101c46000396000f3fe608060405234801561001057600080fd5b506004361061004c5760003560e01c80631de43c4b14610051578063a9a981a314610106578063aec2ccae14610124578063dcd6a5cd1461017e575b600080fd5b61007d6004803603602081101561006757600080fd5b81019080803590602001909291905050506101ac565b6040518084815260200180602001838152602001828103825284818151815260200191508051906020019080838360005b838110156100c95780820151818401526020810190506100ae565b50505050905090810190601f1680156100f65780820380516001836020036101000a031916815260200191505b5094505050505060405180910390f35b61010e61026e565b6040518082815260200191505060405180910390f35b6101666004803603602081101561013a57600080fd5b81019080803573ffffffffffffffffffffffffffffffffffffffff169060200190929190505050610274565b60405180821515815260200191505060405180910390f35b6101aa6004803603602081101561019457600080fd5b8101908080359060200190929190505050610294565b005b6001602052806000526040600020600091509050806000015490806001018054600181600116156101000203166002900480601f01602080910402602001604051908101604052809291908181526020018280546001816001161561010002031660029004801561025e5780601f106102335761010080835404028352916020019161025e565b820191906000526020600020905b81548152906001019060200180831161024157829003601f168201915b5050505050908060020154905083565b60005481565b60026020528060005260406000206000915054906101000a900460ff1681565b600260003373ffffffffffffffffffffffffffffffffffffffff1673ffffffffffffffffffffffffffffffffffffffff16815260200190815260200160002060009054906101000a900460ff1615610354576040517f08c379a00000000000000000000000000000000000000000000000000000000081526004018080602001828103825260168152602001807f596f75206861766520616c726561647920766f7465640000000000000000000081525060200191505060405180910390fd5b60008111801561036657506000548111155b6103d8576040517f08c379a00000000000000000000000000000000000000000000000000000000081526004018080602001828103825260148152602001807f74686520696420646f65736e277420657869737400000000000000000000000081525060200191505060405180910390fd5b6001806000838152602001908152602001600020600201600082825401925050819055506001600260003373ffffffffffffffffffffffffffffffffffffffff1673ffffffffffffffffffffffffffffffffffffffff16815260200190815260200160002060006101000a81548160ff021916908315150217905550807f82ab890a4924aa641094939d7f06fdb5d410dc84a4205ffbb6c20dfc50e7f98460405160405180910390a25056fea26469706673582212205e9839600b784324324a09b6ace88d1bc25cd59a73870312a9c67590e06f5ae564736f6c63430007000033",
  "immutableReferences": {},
  "source": "//SPDX-License-Identifier: GPL-3.0\r\npragma solidity >=0.5.0 <0.9.0;\r\n\r\ncontract Election{\r\n    \r\n   struct Candidate{\r\n       uint id;\r\n       string name;\r\n       uint voteCount;\r\n   }\r\n   \r\n   event update(\r\n       uint indexed _id );\r\n   \r\n   uint public candidateCount;\r\n   \r\n   mapping(uint => Candidate) public candidate;\r\n   \r\n   mapping(address => bool) public voted;\r\n   \r\n   constructor(){\r\n       // the code that initate \r\n       addCandidate(\"Modi ji\");\r\n       addCandidate(\"Rajiv Gandhi\");\r\n   }\r\n   \r\n   //add Candidate\r\n   function addCandidate(string memory name) private {\r\n       candidateCount++;\r\n       candidate[candidateCount]= Candidate(candidateCount,name,0);\r\n   }\r\n   \r\n   // Voting\r\n   function Vote(uint _id) public{\r\n       require(!voted[msg.sender],'You have already voted');\r\n       require(_id >0 && _id<=candidateCount,\"the id doesn't exist\");\r\n       \r\n       candidate[_id].voteCount+=1;\r\n       voted[msg.sender]=true;\r\n       emit update(_id);\r\n   }\r\n}",
  "sourcePath": "C:\\Users\\226499\\c tutorial\\Voting_Dapp\\contracts\\Election.sol",
  "compiler": {
    "name": "solc",
    "version": "0.7.0+commit.9e61f92b.Emscripten.clang"
  },
  "schemaVersion": "3.4.3",
  "updatedAt": "2021-11-18T05:32:11.995Z",
  "networkType": "ethereum",
  "devdoc": {
    "kind": "dev",
    "methods": {},
    "version": 1
  },
  "userdoc": {
    "kind": "user",
    "methods": {},
    "version": 1
  }
}